:08000000BA1704000000000023
:04018000D613000092
:100400005420EF00C3202000008041001040BA00BB
:100410000160EF00000006000003000002FF000082
:10042000FFFF0000FFFF0000FFFF0000FFFF0000D4
:10043000FFFF0000FFFF00005420EF008322200098
:10044000008041001040BA000160EF00000006008B
:1004500000FF000002FF0000FFFF0000FFFF0000A0
:10046000FFFF0000FFFF0000FFFF0000FFFF000094
:100470005420EF0023242000008041001000BA0027
:1004800000000600400000000B00000040000000DB
:10049000000000000000000000000000000000005C
:1004A000000000000000000000000000000000004C
:1004B000000000000000000000000000000000003C
:1004C000000000005420EF00C326200000804100FF
:1004D0001000BA000000060040000000000000000C
:1004E00040000000000000000000000000000000CC
:1004F00000000000000000000000000000000000FC
:1005000000000000000000000000000000000000EB
:1005100000000000000000005420EF00E302200073
:100520008301500005003100832A20000080410033
:100530001040BA000160EF0000000600802A200091
:1005400083814100808141001380BA0000000600D1
:1005500009020100430000000201020000800A00BD
:100560003209000004000000000100000202070040
:1005700001000500052402000010020001044000F3
:100580002402000002050100240607000001050006
:1005900005248200010002000107400005810000DF
:1005A000030B010000FA0000090400005420EF00D2
:1005B000232E2000008041001040BA000160EF00AF
:1005C00000000600020000005420EF00032F20006E
:1005D000008041001040BA000160EF0000000600FA
:1005E000121700001B200000FFFF0000FFFF0000AB
:1005F0005420EF0043302000008041001040BA003A
:100600000160EF0000000600120100001001000070
:100610000200000000400000052400000B00000064
:100620000001000001020000000100005420EF0062
:10063000E301200083015000050031002333200036
:10064000008041001040BA000160EF000000060089
:100650002033200083814100808141001380BA0053
:1006600000000600040374000904000008036F0082
:100670004300000043002000530000002003550009
:1006800043000000430041005300000020005200DE
:1006900055000000530054004200000020000000FC
:1006A000851F7800B5108200C41082000960EF0039
:1006B000100020000400DD00800A7800CF027800DE
:1006C000000006009024A9008A84A900C0108200BE
:1006D00040C0B300C0108A0084482000B4108A00D3
:1006E0005003020000000000C010820040C0B300B0
:1006F000C0108A00044C2000B4108A00500302008D
:100700000000000000000600851F78000012820033
:100710000160EF000004E0000C003A0000128200CB
:100720004800DE000004E000040032000421210043
:1007300014128A00A203040000000000042021001B
:1007400014128A00C4030400000000000412820096
:100750000960EF00E10252004528DD00040220009C
:10076000840240004042F8004F0078004800DE005C
:100770000160EF004400DD008502400004202100FC
:100780000480420010128A004242F8000000F90082
:10079000CF02780000000600601182004042F8009D
:1007A000E0FF9F004042F9002C42F8004F00780023
:1007B0004800DE004042F800F0FF9F004042F90090
:1007C000840302000000000070118A007011820092
:1007D0006400400070118A002E42F8000000F90009
:1007E00000000600201182002C42F800E0FF9F006C
:1007F0002C42F9002442F8004F0078004800DE0047
:100800002C42F800F0FF9F002C42F900CC030200BC
:100810000000000040118A00411182003211820064
:1008200003000900B258780000000600851F780018
:10083000A01182004042F800E0FF9F004042F90012
:100840003442F8004F0078004800DE004042F800D3
:10085000F0FF9F004042F900840302000000000006
:10086000C0118A00C5118200B01182000002780018
:1008700003002000B4197800B419780004002000A7
:10088000B41A7800B41A7800CF027800000006008D
:10089000E120240002002000030009008058EB0042
:1008A0000404200084108A007010820000E0A80078
:1008B00070108A00701082000060A80070108A001A
:1008C000C400210094108A0004002000A4108A00B3
:1008D0002011820000C0B30020118A002011820084
:1008E0000160EF0020118A002421240034118A00C5
:1008F000F203020000000000A011820000C0B3005B
:10090000A0118A00A01182000160EF00A0118A00EE
:10091000E4202400B4118A00160402000000000044
:10092000E120240002002000030009008058EB00B1
:10093000A011820000C0B300A0118A00A0118200A3
:100940000080FD0010C0B3000080FD00A0118A00EF
:10095000E4202400B4118A00160402000000000004
:10096000C404210094108A0004002000A4108A000E
:100970002011820000C0B30020118A0020118200E3
:100980000080FD0010C0B3000080FD0020118A002F
:100990002421240034118A00F20302000000000028
:1009A00000000600E024AE00030037004804020007
:1009B00000000000E024A900C010820070C0B30055
:1009C000C0108A00044C2000B4108A0050030200BA
:1009D0000000000000000600851F780075108200EE
:1009E00080CAEB00F0CFB30090429800CF027800AD
:1009F00000000600444C200074108A00EC04020041
:100A000000000000C010820010C0B300C0108A00B7
:100A1000044C2000B4108A005003020000000000C3
:100A200000000600851F7800861F78000558220008
:100A30000600200001122100A20020000100090090
:100A4000B25878002271EF002371EF008042EB0072
:100A500041122100A2002000B25878008042EB0031
:100A600051122100A2002000B258780085C0B300C6
:100A700061122100A2002000B25878006A71EF00D4
:100A80006911A9002831EF002771EF000810A900B3
:100A90006B71EF004F037800CF0278000000060072
:100AA000851F78001C31EF000400200074108A00BC
:100AB000701082006200E1000900310070108200B5
:100AC000E411210084024000804AEB007010820093
:100AD0000000E80070108A005805040000000000C3
:100AE00012050200000000000230EF001400200098
:100AF000248088000070EF00CF027800000006001C
:100B0000851F78002C42F8004F0278004822DE0052
:100B10000800A900631182000370A7000800A80064
:100B20002C42F800F4FF9F002C42F9006011820073
:100B30000160EF000070A1002C42F800E0FF9F0070
:100B40002C42F900601182000160EF007004E100A6
:100B5000020036000060EF001D00370064118200C3
:100B60000480A6000E003700601182000160EF00D3
:100B70000002020000000000F40F20000024E10049
:100B800003003A000040EB00CA050400000000002A
:100B900010C0B3000E003700E8050400000000009C
:100BA000601182000160EF001C02020000000000E2
:100BB000F40F20000024E10003003A000040EB00A5
:100BC000E60504000000000010C0B300000037007C
:100BD000CF02780000000600851F780030118200E7
:100BE0000160EF004100DD00044E2000840240005F
:100BF000804AEB0000C0B3009042980030118200A0
:100C00002C42F800E0FF9F002C42F9008005020012
:100C1000000000000004E0001C00320081222400DB
:100C200002002000030009008058EB003011820010
:100C30003442F800E0FF9F003442F900A011820026
:100C40000160EF00A0118A0084222400B4118A0000
:100C50001604020000000000301182003442F80047
:100C6000E0FF9F003442F900A01182000080FD00E7
:100C700010C0B3000080FD00A0118A00842224006F
:100C8000B4118A001604020000000000CF027800B0
:100C9000000006002011820010C0B30020118A005D
:100CA000201182000160EF007004E1000D003100AE
:100CB000201182002642F800E0FF9F002642F90042
:100CC000EC05020000000000201182000040E80056
:100CD0002442F800E0FF9F002442F900500604007F
:100CE0000000000000000600C010820030C0B30009
:100CF000C0108A00044C2000B4108A005003020087
:100D000000000000040009000000000000000600D0
:100D1000444C200074108A00EC0402000000000023
:100D2000044C200074108A00EC0402000000000053
:100D3000F409200034268800940920001426880035
:100D4000CC24EF0050050200000000004A0602001B
:100D500000000000D400200004278800C064AE001A
:100D6000040037007406020000000000AE06040014
:100D700000000000CAA4A90048040200000000000E
:100D800030C0B3000BF0B700000006008A84A80052
:100D9000C284A90000000600C010820020C0B30079
:100DA000C0108A00044C2000B4108A0050030200D6
:100DB0000000000000000600851F7800D0118200AE
:100DC0004042F800E0FF9F004042F9003A42F8003C
:100DD0004F0078004800DE004042F800F0FF9F001E
:100DE0004042F9008403020000000000F0118A0074
:100DF000E5118200F011820000027800030020005B
:100E0000B4197800B419780004002000B41A7800EE
:100E1000B41A7800CF02780000000600E0108200CB
:100E200018F1B7000000060018F1EF0000000600FE
:100E3000851F7800861F780004002000D4108A00E7
:100E40001C11E20033003200D010820004042000A4
:100E50000020E1002F00360006D0BF000160EF0047
:100E60000080B200050032002080B2000B0032008A
:100E70001080B20011003200180037001A91BF0034
:100E80008C020200000000001842F800E0FF9F0002
:100E90001842F9006E070400000000001A91BF001C
:100EA00016030200000000001842F800E0FF9F0057
:100EB0001842F9006E070400000000001A91BF00FC
:100EC000F8020200000000001842F800E0FF9F0056
:100ED0001842F9006E070400000000001A31EC000F
:100EE0001C31ED00D0108200801F78000000E80067
:100EF000D0108A004F00780080027800C4042100DE
:100F000004834200C01082000043980020070400C0
:100F1000000000001C11E20005003A00D010820021
:100F2000040420000020E100010032000070EF0006
:100F3000D01082001C42F800E0FF9F001C42F90024
:100F40000E070200000000004F037800CF02780077
:100F500000000600851F7800B010820000C0B300BA
:100F6000B0108A001A31EF000670EF000FD0BF00FA
:100F70000160EF001080B200070032003080B20044
:100F80000B0032001080B2000D0032002082B2004F
:100F9000290032003D00370024012000E488880049
:100FA00030C0B30006F0B7004C0804000000000099
:100FB00034042000E48888004C080400000000008D
:100FC00020C0B30006F0B700B010820000C0B3002C
:100FD000B0108A00B01082000160EF0074808000C1
:100FE0000024E1000D0036001A91BF001603020034
:100FF00000000000804278000500FB001A31B400B8
:10100000B01082000040E8001642F800E0FF9F00A8
:101010001642F900EA070400000000001A91BF0020
:1010200016030200000000000000FB001CB1B70026
:101030004C080400000000000ED0BF000160EF006B
:10104000E4020200000000000000FB001AB1B7003B
:10105000D4888000F48FB200090032001A91BF00DA
:101060008C020200000000000000FB001CB1B70071
:101070004C080400000000004608040000000000C6
:1010800014070200000000001100370014070200DE
:10109000000000000E0037001350E20008003A0084
:1010A00012D0BF000160EF00E48880000020E10062
:1010B0000300360012D0BF001CF1B7001D71EF0015
:1010C00010C0B30000F0B7001807020000000000D5
:1010D000CF02780000000600851F7800B010820063
:1010E0000160EF000004E00006003A0040C0B300D9
:1010F0000BF0B7004A06020000000000F4090400EB
:101100000000000050C0B3000BF0B700C40821007D
:10111000C4108A0004002000D4108A00B01082009D
:101120000080FD0010C0B3000080FD00B0108A00F8
:10113000B01082004800DE007004E100AA00310017
:101140001642F8004F0078004800DE002642F80002
:10115000E0FF9F002642F900EC05020000000000BD
:1011600004002000E4108A001642F8004F007800C6
:101170004800DE000160EF001C02020000000000D9
:10118000F40F20000024E100370032000122240087
:1011900002002000030009008058EB0084002000BA
:1011A000E4108A001642F8004F0078004800DE0084
:1011B0000160EF004100DD0062020200000000005B
:1011C000F0108A001642F8004F0078004800DE0058
:1011D0002442F800E0FF9F002442F9002011820021
:1011E0000160EF0020118A008421240034118A005C
:1011F000F203020000000000C0108200F410820020
:1012000004004000C0108A00D310820060804900B2
:10121000D0108A000011820000E0A80000118A00AE
:10122000001182000060A80000118A001E42F80030
:101230002242F9001642F8004F0078004800DE0014
:101240003442F800E0FF9F003442F900A011820010
:101250000160EF00A0118A0004222400B4118A006A
:1012600016040200000000001642F8004F0078004B
:101270004800DE000160EF000002020000000000F4
:10128000F40F20000024E100360032000122240087
:1012900002002000030009008058EB00E0108200EB
:1012A0000020A000E0108A001642F8004F007800ED
:1012B0004800DE002442F800E0FF9F002442F900CD
:1012C000201182000080FD0010C0B3000080FD00EE
:1012D00020118A008421240034118A00F2030200C4
:1012E000000000001642F8004F0078004800DE00C1
:1012F0000160EF004100DD00380202000000000044
:10130000C410820004004000C0108A00D310820084
:101310000200200003004900D0108A000011820062
:1013200000C0A80000118A001642F8004F007800A3
:101330004800DE003442F800E0FF9F003442F9002C
:10134000A01182000080FD0010C0B3000080FD00ED
:10135000A0118A0004222400B4118A00160402009D
:1013600000000000E01082006C00E10002003A0082
:10137000C4012000E4108A001642F8004F007800F3
:101380004800DE000160EF000002020000000000E3
:101390006104E10003003200E01082000000A000C0
:1013A000E0108A001642F8004F0078004800DE0086
:1013B0000160EF004100DD00044E20008402400087
:1013C000E410820084029800B01082004800DE0021
:1013D0000040E8001642F800F0FF9F001642F900B6
:1013E0009808040000000000CF027800000006000A
:1013F0000DD0BF000160EF000080B2000D00320090
:101400001080B200150032002080B20024003200AB
:101410006080B200320032003080B2003B00320007
:10142000E080B2003D0032001080B2004400320083
:101430005600370004D0BF004CF0B7004D70EF00ED
:10144000E010820020C0B300E0108A000E07020006
:1014500000000000CE0A040000000000748080003C
:101460006124E1000A003A000490BF0061006000BE
:1014700004B0B700E010820000C0B300E0108A00A2
:101480000E070200000000004C0A040000000000EB
:101490001407020000000000CE0A04000000000053
:1014A000748080006124E10009003A0044002100BA
:1014B0001410A000E010820000C0B300E0108A0009
:1014C0000E070200000000006C0A0400000000008B
:1014D0001407020000000000CE0A04000000000013
:1014E00020C0B30000F0B7000ED0BF0019F1B70064
:1014F000E010820000C0B300E0108A000E07020076
:1015000000000000CE0A040000000000AA0702004C
:1015100000000000CE0A04000000000002D0BF005E
:101520004CF0B700E010820010C0B300E0108A0059
:101530000E07020000000000CE0A040000000000B8
:10154000748080006124E1000E003E000ED0BF00D8
:1015500002F0B7000370EF000ED0BF001642F80093
:10156000E0FF9F001642F9006C0802000000000036
:10157000E010820000C0B300E0108A000E070200F5
:1015800000000000CE0A0400000000001407020062
:1015900000000000CE0A0400000000000000060069
:1015A000851F780002D0BF001642F800E0FF9F00C0
:1015B0001642F9000DD0BF000160EF000080B200BC
:1015C00005003200A080B2000C0032001080B20092
:1015D000290032003D0037004C70EF004D70EF00E5
:1015E000E010820020C0B300E0108A000E07020065
:1015F000000000006E0B040000000000B01082002C
:101600000160EF000004E00017003200B410820017
:101610000960EF00E102520005007800D6020200E6
:1016200000000000848080000024E1000E003D00E6
:10163000848080000960EF00E31121000300420074
:10164000648280000042900064828800E010820082
:1016500010C0B300E0108A000E0702000000000076
:10166000380B040000000000140702000000000016
:101670006E0B040000000000B01082000160EF005B
:101680000004E0000D003200848080000960EF005B
:10169000E3112100830242000E90BF0080429800B7
:1016A000E010820000C0B300E0108A000E070200C4
:1016B00000000000620B040000000000140702009C
:1016C000000000006E0B0400000000001407020080
:1016D000000000006E0B040000000000CF02780044
:1016E00000000600851F78001642F8004F027800BF
:1016F0004822DE000800A900B31082000370A70092
:101700000800A8001642F800F4FF9F001642F900F6
:10171000B01082000160EF000070A1001642F800D6
:10172000E0FF9F001642F900812124000200200002
:10173000030009008058EB00B41082000480A6006A
:1017400015003700C010820000E0A800C0108A0019
:10175000C01082000060A800C0108A00B010820093
:101760003442F800E0FF9F003442F900A0118200EB
:101770000080FD0010C0B3000080FD00A0118A00B1
:1017800084212400B4118A00160402000000000025
:10179000E20B040000000000B01082003442F800A8
:1017A000E0FF9F003442F900A01182000160EF00C9
:1017B000A0118A0084212400B4118A0016040200BA
:1017C00000000000B01082000160EF004100DD0069
:1017D000044E20000400400080027800154278008A
:1017E000D44FB20084429800CF0278000000060077
:1017F000851F7800812124000200200003000900D9
:101800008058EB00C010820000E0A800C0108A00E1
:10181000C01082000040A800C0108A001642F800E4
:101820004F0278004822DE000800A900B3108200B1
:101830000370A7000800A8001642F800F4FF9F00FC
:101840001642F900B01082000160EF000070A100A4
:101850001642F800E0FF9F001642F900B410820023
:101860000000EB000480A7000000E8008042780040
:10187000801F7800B01082003442F800E0FF9F0023
:101880003442F9004F0078003442F800F5FF9F0021
:101890003442F90084212400B4118A0016040200A5
:1018A00000000000CF02780000000600851F7800CD
:1018B0001642F8004F0278004822DE000800A90016
:1018C000B31082000370A7000800A8001642F800B9
:1018D000F4FF9F001642F900B01082000160EF0093
:1018E0000070A1001642F800E0FF9F001642F900C8
:1018F000B41082000000EB000480A7000000E800A4
:1019000080427800801F7800B01082003A42F800D0
:10191000E0FF9F003A42F9004F0078003A42F80099
:10192000F5FF9F003A42F90084212400E4118A0067
:10193000DC06020000000000C41082000470A60053
:1019400003003700C41082000420A7000300370002
:101950000040EB00B00C04000000000010C0B30019
:10196000CF0278000000060010D0BF002C42F80023
:10197000E0FF9F002C42F9008005020000000000FB
:101980000004E0003A0032000DD0BF000160EF001B
:101990001080B200050032002080B200100032003A
:1019A0003080B2001B0032002D00370010D0BF0085
:1019B0001642F800E0FF9F001642F900720B020089
:1019C00000000000E010820000C0B300E0108A00B8
:1019D0000E07020000000000380D040000000000A7
:1019E00010D0BF001642F800E0FF9F001642F90039
:1019F000F80B020000000000E010820000C0B300FD
:101A0000E0108A000E07020000000000380D0400FC
:101A1000000000004C70EF004D70EF0010D0BF00D0
:101A20001642F800E0FF9F001642F900560C020033
:101A3000000000000004E0000200320010C0B3000B
:101A40004CF0B700E010820020C0B300E0108A0024
:101A50000E07020000000000380D04000000000026
:101A60001407020000000000380D04000000000010
:101A700000000600E0CFB30018F1B7000000060038
:101A8000848080006124E100020032001050E200F6
:101A90004F003A0012D0BF001642F800E0FF9F004E
:101AA0001642F90013D0BF001642F800F0FF9F0065
:101AB0001642F9000DD0BF000160EF000080B200B7
:101AC0000B0032001080B2000F0032001082B20012
:101AD000150032001080B2001A0032003080B200CF
:101AE000230032001080B2002A0032003400370098
:101AF00010C0B3006BF1B7003A0D02000000000007
:101B0000E80D040000000000B01082001C42F80044
:101B1000E0FF9F001C42F9000E07020000000000D9
:101B2000E80D04000000000020C0B3006BF1B70016
:101B30006911A8003A0D020000000000E80D040041
:101B400000000000C104210002122100060009006B
:101B5000B2587800E010820070C0B300E0108A0034
:101B60000E07020000000000E80D04000000000065
:101B70000ED0BF006AF1B700E010820000C0B300D1
:101B8000E0108A000E07020000000000E80D0400CB
:101B9000000000000FD0BF0028F1B7000ED0BF003A
:101BA00029F1B700E010820000C0B300E0108A0005
:101BB0000E07020000000000E80D04000000000015
:101BC0001407020000000000E80D040000000000FF
:101BD000000006000070EF000CD0BF000160EF00B5
:101BE000F007B2000080B200070032001080B2009F
:101BF000090032003080B2000B0032003082B200A7
:101C00000D00320010003700F8090200000000004B
:101C10002C0E040000000000D00A020000000000AA
:101C20002C0E040000000000B40C020000000000B4
:101C30002C0E040000000000400D02000000000017
:101C40002C0E040000000000140702000000000039
:101C50002C0E04000000000000000600A12124005A
:101C600002002000030009008058EB00C010820031
:101C70004800DE006204E1001D003A00C01082004E
:101C80003A42F800E0FF9F003A42F900D01182008A
:101C90000160EF00D0118A00E4212400E4118A00E1
:101CA000DC06020000000000F41082008001EB005E
:101CB0000460A7008301E8001842F800F3FF9F00CA
:101CC0001842F900C01082004800DE000004E00065
:101CD000030032000040EB00720E04000000000020
:101CE00010C0B3001842F800F0FF9F001842F9003E
:101CF000C01082004800DE006304E10015003A00D5
:101D0000D010820000E0A800D0108A00D01082001D
:101D10000040A800D0108A00C01082003442F800B1
:101D2000E0FF9F003442F900A01182000080FD0016
:101D300010C0B3000080FD00A0118A00A42124007F
:101D4000B4118A001604020000000000DA0E04003C
:101D500000000000C01082004800DE006104E100C5
:101D60000B003A00D010820000E0A800D0108A00DA
:101D7000D010820000C0A800D0108A00D0108200CD
:101D80000060A800D0108A00DA0E040000000000F5
:101D9000D010820000E0A800D0108A00D01082008D
:101DA00000C0A900D0108A00D01082000060A800F6
:101DB000D0108A00C01082000160EF004100DD00F9
:101DC0006202020000000000E0108A00C0108200E1
:101DD0003442F800E0FF9F003442F900A011820075
:101DE0000160EF00A0118A00A4212400B4118A0030
:101DF000160402000000000000000600851F7800A5
:101E0000A01182003A42F800E0FF9F003A42F90038
:101E1000D01182000080FD0010C0B3000080FD00E2
:101E2000D0118A0064232400E4118A00DC06020039
:101E300000000000A01182000160EF004100DD0001
:101E4000044E200004004000900278000500E000ED
:101E500003003200B41182000470A60003003700B2
:101E60000040EB00380F04000000000010C0B30079
:101E7000CF02780000000600A1222400020020000A
:101E8000030009008058EB00301182003442F80052
:101E9000E0FF9F003442F900FE0E02000000000047
:101EA0000004E0005D0032002842F8002C42F900F6
:101EB000301182004800DE006204E10021003A0097
:101EC000301182003A42F800E0FF9F003A42F900E8
:101ED000D01182000080FD0010C0B3000080FD0022
:101EE000D0118A00E4222400E4118A00DC060200FA
:101EF00000000000741182008001EB000460A70064
:101F00008301E8002642F800F3FF9F002642F90013
:101F1000301182004800DE000004E00003003200BF
:101F20000040EB00980F04000000000010C0B30058
:101F30002642F800F0FF9F002642F900CE0F040071
:101F400000000000301182004800DE006404E1005F
:101F500012003A00301182003A42F800E0FF9F0080
:101F60003A42F900D01182000160EF00D0118A00DE
:101F7000E4222400E4118A00DC06020000000000D4
:101F8000741182008001EB000460A7008301E80067
:101F90002642F800F3FF9F002642F9005411820008
:101FA00008C0A9002642F800CF017800C819DE0059
:101FB0000300A70008C0A8002A42F800E4FF9F0021
:101FC0002A42F900501182000060A80050118A00D6
:101FD0005011820000E0A80050118A0030118200E8
:101FE0003442F800E0FF9F003442F900A011820063
:101FF0000080FD0010C0B3000080FD00A0118A0029
:10200000A4222400B4118A0016040200000000007B
:1020100010C0B30000E0B700010037000060EF001F
:10202000000006006BD1BF000160EF001080B2001D
:10203000030032003080B200090032001400370083
:10204000E010820000C0B300E0108A000E0702001A
:10205000000000006B71EF004E1004000000000053
:1020600001122100C200210006000900B2587800C8
:102070006B71EF00E010820000C0B300E0108A0036
:102080000E070200000000004E10040000000000D7
:102090006B71EF004E10040000000000000006000D
:1020A000C01082003A42F800E0FF9F003A42F90077
:1020B000D01182000160EF00D0118A00A421240019
:1020C000E4118A00DC060200000000001C42F80057
:1020D0000000F900000006000810A900C0108200EE
:1020E00020C0B300C0108A00C01082000080FD0034
:1020F00020C0B3000080FD00C0108A002E0E020038
:1021000000000000000006000810A8000A70EF00A0
:10211000C010820020C0B300C0108A00501002001E
:102120000000000009F0B7000950E20002003A0088
:102130006C1002000000000000000600B0108200D9
:102140000160EF000004E00004003A0012100200F9
:1021500000000000BA10040000000000B01082006F
:102160000160EF006204E10002003A008410020006
:102170000000000000000600C0108200CCE4B700A0
:10218000CD64EF00C01082000160EF000004E000A9
:102190000400320040C0B3000BF0B700D6100400BA
:1021A0000000000020C0B3000BF0B70000000600E4
:1021B0000230EF000070EF0019D1BF001842F800A4
:1021C000E0FF9F001842F900BC1002000000000070
:1021D00000000600301182002C42F800E0FF9F0052
:1021E0002C42F9002642F8004F0078004800DE003B
:1021F0002C42F800F0FF9F002C42F900CC030200B3
:102200000000000050118A0041118200521182002A
:1022100003000900B258780000000600D0108200C8
:102220003442F800E0FF9F003442F900FE0E020045
:10223000000000000004E00025003200D010820001
:102240002642F800E0FF9F002642F900301182008C
:102250000080FD0010C0B3000080FD0030118A0036
:102260000422240044118A00EA1002000000000049
:1022700001118200E2108200F01082000000E900EB
:102280000200390000800900B2587800D0108200A6
:102290002642F800E0FF9F002642F9001A42F800AB
:1022A0004F0078004800DE002642F800F0FF9F0053
:1022B0002642F9001E42F8002842F9003C0F0200B5
:1022C0000000000003003700681104000000000057
:1022D0000060EF00000006002751E2001600320007
:1022E000D010820020C0B300D0108A0027D1BF00D8
:1022F0001E42F800E0FF9F001E42F900F01082002D
:102300000160EF00F0108A00D01082000080FD0014
:1023100020C0B3000080FD00D0108A00A41221006C
:10232000E4108A000E110200000000000004E0002A
:10233000010032002771EF00000006006C1102005E
:102340000000000000000600B01082000160EF00F5
:102350000004E0000E003A00048080006124E100E7
:1023600004003A001807020000000000C411040035
:1023700000000000048080006224E10002003A00B6
:10238000D810020000000000D4110400000000007A
:10239000B01082000160EF006204E10002003A0028
:1023A0009E1102000000000000000600851F78005A
:1023B000C884BF004400DE000E42F800E0FF9F002A
:1023C0000E42F90045268000850FB2000500E000AE
:1023D000BE003A00D011820000C0B300D0118A00C4
:1023E000D01182000160EF00D0118A000421240086
:1023F000E4118A00DC060200000000008010820068
:102400004202DE00F400B200044078000160EF00F8
:10241000A0108A008010820000E0A90080108A00CD
:1024200084108200343CB2000400B3001042F80073
:10243000E4FF9F001042F900A011820000C0B30029
:10244000A0118A00A01182000160EF00A0118A0093
:1024500004212400B4118A001604020000000000C8
:102460007406020000000000A01082006D00E10070
:102470006B003A0001212400020020000300090043
:102480008058EB00A011820000C0B300A0118A00A8
:10249000A01182000080FD0010C0B3000080FD008C
:1024A000A0118A0004212400B4118A00160402003D
:1024B00000000000EA0D020000000000CAA4A9000C
:1024C000C4888000F4CFB2000C003A00C010820033
:1024D00000C0B300C0108A00C01082000080FD0060
:1024E00030C0B3000080FD00C0108A002E0E020034
:1024F000000000000C13040000000000D011820056
:1025000000C0B300D0118A00D01182000160EF003A
:10251000D0118A0004212400E4118A00DC060200A4
:10252000000000000E42F8004F0278004822DE0052
:102530000800A900831082000360A7000800A8001B
:102540000E42F800F4FF9F000E42F9000E42F80020
:102550004F0278004822DE000800A9000E42F80071
:10256000CF017800C819DE000300A6000800A8000B
:102570000E42F800F4FF9F000E42F900C0108200E6
:1025800000C0B300C0108A00C01082000080FD00AF
:1025900020C0B3000080FD00C0108A002E0E020093
:1025A00000000000C4888000E4CFB2001A003200AE
:1025B000741082000000EB000480A7000000E80017
:1025C00080427800801F78003011820000C0B30084
:1025D00030118A004F007800801F780018D1BF00AA
:1025E0002842F800E0FF9F002842F9004F007800E1
:1025F000801F7800401182000160EF0040118A00C6
:102600004F0078002642F800F5FF9F002642F900AF
:102610003C0F0200000000006213040000000000F4
:10262000A01082006100E10026003A00B010820094
:1026300000C0B300B0108A009E100200000000002D
:10264000C010820000C0B300C0108A00C010820019
:102650000080FD0020C0B3000080FD00C0108A0093
:102660002E0E020000000000C4888000E4CFB200FB
:1026700014003200C4888000F4CFB2001100320090
:102680003011820000C0B30030118A0018D1BF00A1
:102690002842F800E0FF9F002842F9004011820024
:1026A0000160EF0040118A00301182000080FD00BF
:1026B00010C0B3000080FD0030118A003C0F020002
:1026C00000000000D2130400000000004526800036
:1026D000850FB2006828E1001E003A00740602006F
:1026E0000000000018F1EF00B010820000C0B3003D
:1026F000B0108A00A411020000000000C48880000D
:10270000F4CFB200110032003011820000C0B300DB
:1027100030118A0018D1BF002842F800E0FF9F0066
:102720002842F900401182000160EF0040118A0048
:10273000301182000080FD0020C0B3000080FD0049
:1027400030118A003C0F020000000000D213040088
:1027500000000000C864AF000A00370074060200E1
:1027600000000000701082001642F800E0FF9F0099
:102770001642F9009E10020000000000D21304006F
:1027800000000000740602000000000070108200CB
:102790001642F800E0FF9F001642F900A411020063
:1027A00000000000CF027800000006004200F800A0
:1027B0003600F8005400F800801F78002000200048
:1027C0000C000900B01F78006010820000C0B30048
:1027D00060108A000B50E20001003A003E00370012
:1027E000C004E20002003A008804E2003A0032002D
:1027F0008884AE00040037008A84AE0002003700EF
:1028000062030200000000009024AE0001003700C7
:1028100031003700C0E4AE0004003700C2E4AE006F
:1028200002003700D204020000000000C024AE0005
:1028300004003700C224AE0002003700FA04020090
:1028400000000000C004AE0004003700C204AE0067
:10285000020037008806020000000000C084AE00BD
:1028600004003700C284AE0002003700C606020032
:1028700000000000C044AE0004003700C244AE00B7
:1028800002003700CC06020000000000C064AE0069
:1028900006003700C264AE0004003700D611020003
:1028A000000000005A140400000000006C14040032
:1028B0000000000060108200801F78000040E800E7
:1028C0000C42F800E0FF9F000C42F9004F00780036
:1028D0006404E100EDFF39000AC8A900A00120004E
:1028E0000C0009004F1078004F0078005400F900E8
:1028F0003600F9004200F900004006003110820065
:10290000421082000180FD000280FD000101FD00F7
:1029100042108A0031108A0030108200411082007B
:1029200000000600851F7800861F7800871F78004A
:1029300004002000B40F8A0004002000C40F8A00A5
:1029400004002000D40F8A0004002000E40F8A0055
:10295000C00F82006000E100A5003E0004003900C5
:10296000B00F8200048020000020E100A0003600AB
:10297000D00F8200E10F82000000E00002003A0068
:102980000100E000110032006100E10002003A00A5
:102990000100E0001F0032006200E10002003A0086
:1029A0000100E0002D0032006300E10002003A0067
:1029B0000100E0003B0032006400E10002003A0048
:1029C0000100E000490032005E003700B291BF0014
:1029D0004200DD00C41E220084024000B00F8200CD
:1029E00000037800C40F82000010210084037000EF
:1029F00036108A0047108A007E1402000000000092
:102A000004002000B41A7800B41A7800AA15040053
:102A100000000000B291BF004200DD00C41E220091
:102A200084024000B00F820000037800C40F8200CF
:102A3000002021008403700036108A0047108A00AD
:102A40007E1402000000000004002000B41A780088
:102A5000B41A7800AA15040000000000B291BF006B
:102A60004200DD00C41E220084024000B00F82003C
:102A700000037800C40F820000302100840370003E
:102A800036108A0047108A007E1402000000000001
:102A900004002000B41A7800B41A7800AA150400C3
:102AA00000000000B291BF004200DD00C41E220001
:102AB00084024000B00F820000037800C40F82003F
:102AC000004021008403700036108A0047108A00FD
:102AD0007E1402000000000004002000B41A7800F8
:102AE000B41A7800AA15040000000000B291BF00DB
:102AF0004200DD00C41E220084024000B00F8200AC
:102B000000037800C40F820000502100840370008D
:102B100036108A0047108A007E1402000000000070
:102B200004002000B41A7800B41A7800F0FF2F00D7
:102B3000F1FF2F00D00F8A00E10F8A00AA150400D0
:102B400000000000F0FF2F00F1FF2F00D00F8A00DF
:102B5000E10F8A00948D8000F37F20000418E100CB
:102B600001003A00B2B1EF00A48D80000380200084
:102B70000418E1000200310004802000A48D8800C8
:102B8000B00F8200801F7800811F78000000E800ED
:102B9000B00F8A00C00F82004220AF000000E800A2
:102BA000C00F8A00CF0078004F007800D00F82005D
:102BB000E10F8200801F7800811F78000000E8008C
:102BC000D00F8A00E00F82004220AF000000E80032
:102BD000E00F8A00CF0078004F007800B291BF006C
:102BE000B231EC00B431EC00A81404000000000085
:102BF000CF0378004F037800CF0278000000060072
:102C0000811F7800831F7800841F7800851F78005B
:102C1000881F78008A1F7800821F7800801F780044
:102C20001110820041108A00F30F200083806000A1
:102C3000FF816000C508DE00CB19DD0011108A009D
:102C400031108A0001108200C508DE008380700008
:102C500001108A0021108A0000F02F004410820029
:102C60000820B60044108A00111F20008100E900EE
:102C7000C208DD0042108200031021000420210060
:102C8000053021000A402100005021001310E70008
:102C9000082621001410E70048A221001510E700C3
:102CA00048A221001A10E700082621001010E700B2
:102CB0000826210001044400620444000A002500A3
:102CC0008101D100030545001201C3001281C30038
:102CD00028027800AA02780043002000C208DE0023
:102CE0008100E9000180080003000000D201C0005B
:102CF00018B47900DE85C00018B4790003202400E0
:102D0000331C780013147800230278001200C000EE
:102D10001281C0007F00C8004F80C8000000CB00B7
:102D20005300CC007000C8004300CC004F00780076
:102D30004F0178004F0578004F047800CF027800EB
:102D40004F027800CF017800CF0078002010820079
:102D5000041082000400500020108A00301082000D
:102D6000141082000400580030108A00F00F200078
:102D7000341082000820B60034108A00441082000B
:102D80000880BF0044108A00341082000820B70079
:102D900034108A00201082003110820000000600EA
:102DA000851F7800861F7800871F780004002000A8
:102DB000C40F8A0004102100D40F8A0004002000F0
:102DC000B40F8A00B00F82006600E1005C003100A1
:102DD000C00F82008002EB00D40F820000F02F00B1
:102DE000040360000DC0BF00804278000B60EF005C
:102DF0000043EB000D60EF007128E10002003A0093
:102E00000600E00017003200B291BF004200DD0072
:102E1000C41E220084024000F841F8000642F90076
:102E2000FA41F8000842F9007E1402000000000098
:102E300004002000B41A7800B41A7800C00F820091
:102E4000D10F82000000E800C00F8A00D00F82007E
:102E50004220AF000000E800D00F8A00861704006F
:102E600000000000100EA900140EA800C00F820080
:102E700000027800F0FF2F0004007000C00F8A00ED
:102E8000D00F820067007000D00F8A00F48D8000A0
:102E9000848CB20006003A00C011E20004003A003F
:102EA000BE31EF00C031EF005E17040000000000EB
:102EB000BE31EC004220AF00C031EC00B291BF0047
:102EC0004200DD00C41E220084024000F841F800E8
:102ED0000042F900FA41F8000242F900001602002F
:102EE000000000000003BE0036108A0047108A0070
:102EF0007E1402000000000004002000B41A7800D4
:102F0000B41A7800100EA900140EA900948D800048
:102F1000F37F20000418E10001003A00B2B1EF0095
:102F2000B00F8200801F78000000E800B00F8A0018
:102F30004F007800B231EC00E216040000000000FF
:102F4000A48D800066004200B4B1B700A48D80005B
:102F5000038020000418E1000200310004802000FA
:102F6000A48D8800CF0378004F037800CF0278004B
:102F7000000006000FF82600F0FF260020A0B70092
:102F800000000000C1E8A8000600FC002174200039
:102F9000620420007305200082487800834878008E
:102FA00042C7A90030442400C8A6B70060502000E2
:102FB00084A6B7000600FC002174200062042000F3
:102FC00073052000824878008348780042C7A80033
:102FD00014022000343A88004427EF000E00FC0061
:102FE000301020003174200082072000A309200047
:102FF000824878008348780043E7B7004800DE0045
:1030000021742000620420007305200082487800AB
:103010008348780080487800244C2A00C43A88000D
:1030200034002000D43A88000B70EF0041E2A90080
:1030300030AEA900306EA800308EA90040C2A900B1
:10304000E44620001412880041E2A8006E71EF00EF
:10305000B031EF00B231EF00B431EF00B631EF0024
:10306000B831EF00BE31EF00C031EF001E2EEF008F
:103070002E2EEF003E2EEF004E2EEF006E2EEF00B4
:103080005C013700800211006C000000807D500060
:1030900000FBFF00FBFFFA00FFFAFF00FAFFFA0057
:1030A000FFFAFF00FAFFFA00FFFAFF00FAFFFA004A
:1030B000FFFAFF00F9FFF900FFF9FF00F9FFF9003F
:1030C000FFF9FF00F9FFF900FFF9FF00F9FFF90030
:1030D000FFF9FF00F9FFF900FFF9FF00F9FFF90020
:1030E000FFF9FF00F9FFF900FFF9FF00F9FFF90010
:1030F000FFF9FF00F9FFF900FFF9FF00FAFFFA00FE
:10310000FFFAFF00FAFFFA00FFFAFF00FAFFFB00E8
:10311000FFFBFF00FBFFFB00FFFBFF00FCFFFC00D1
:10312000FFFCFF00FCFFFD00FFFDFF00FDFFFD00B9
:10313000FFFEFF00FEFFFE004005FF00400600000E
:1031400002D10100000100000200020000030000A3
:103150000300040000040000050005000006000054
:103160000600070000080000080009000009000030
:103170000A000B00000B00000C000D00000E000008
:103180000E000F00001000001100120000120000DD
:1031900013001400001500001600170000180000AE
:1031A00019001A00001B00001C001D00001E00007A
:1031B0001F00200000210000220023000024000046
:1031C000250026000027000028002A00002B000010
:1031D0002C002D00002E00003000310000320000D5
:1031E000330035000036000037003800003A000098
:1031F0003B003C00003E00003F0040000042000059
:10320000430044000046000047004900004A000017
:103210004B004D00004E00005000510000520000D5
:10322000540055000057000058005A00005B000091
:103230005C005E00005F000061006200006400004E
:10324000650066000068000069006B00006C00000B
:103250006E006F00007000007200730000750000C7
:1032600076007700007900007A007C00007D000085
:103270007E00800000810000820083000085000045
:1032800086008700008900008A008B00008C000007
:103290008D008F00009000009100920000930000CC
:1032A000940096000097000098009900009A000092
:1032B0009B009C00009D00009E009F0000A000005D
:1032C000A000A10000A20000A300A40000A500002F
:1032D000A500A60000A70000A800A80000A9000003
:1032E000AA00AA0000AB0000AB00AC0000AC0000DC
:1032F000AD00AD0000AE0000AE00AF0000AF0000BA
:10330000AF00B00000B00000B000B00000B100009D
:10331000B100B10000B10000B100B10000B1000087
:10332000B200B20000B20000B100B10000B1000074
:10333000B100B10000B10000B100B00000B0000069
:10334000B000B00000AF0000AF00AF0000AE000062
:10335000AE00AD0000AD0000AC00AC0000AB000062
:10336000AB00AA0000AA0000A900A80000A8000065
:10337000A700A60000A50000A500A40000A300006F
:10338000A200A10000A00000A0009F00009E00007D
:103390009D009C00009B00009A009900009800008E
:1033A00097009600009400009300920000910000A6
:1033B00090008F00008D00008C008B00008A0000C0
:1033C00089008700008600008500830000820000DD
:1033D00081008000007E00007D007C00007A0000FB
:1033E000790077000076000075007300007200001D
:1033F00070006F00006E00006C006B000069000040
:103400006800660000650000640062000061000062
:103410005F005E00005C00005B005A000058000086
:1034200057005500005400005200510000500000A9
:103430004E004D00004B00004A00490000470000CC
:10344000460044000043000042004000003F0000EE
:103450003E003C00003B00003A003800003700000E
:10346000360035000033000032003100003000002B
:103470002E002D00002C00002B002A000028000048
:103480002700260000250000240023000022000061
:1034900021002000001F00001E001D00001C000075
:1034A0001B001A0000190000180017000016000089
:1034B000150014000013000012001200001100009B
:1034C00010000F00000E00000E000D00000C0000A8
:1034D0000B000B00000A00000900090000080000B2
:1034E00008000700000600000600050000050000B7
:1034F00004000400000300000300020000020000BA
:1035000001000100400700004004FF00007EFE00B3
:10351000FFFEFF00FEFFFD00FFFDFF00FDFFFD00C1
:10352000FFFCFF00FCFFFC00FFFCFF00FBFFFB00BB
:10353000FFFBFF00FBFFFB00FFFAFF00FAFFFA00B2
:10354000FFFAFF00FAFFFA00FFFAFF00F9FFF900A7
:10355000FFF9FF00F9FFF900FFF9FF00F9FFF9009B
:10356000FFF9FF00F9FFF900FFF9FF00F9FFF9008B
:10357000FFF9FF00F9FFF900FFF9FF00F9FFF9007B
:10358000FFF9FF00F9FFF900FFF9FF00F9FFF9006B
:10359000FFF9FF00FAFFFA00FFFAFF00FAFFFA0056
:1035A000FFFAFF00FAFFFA00FFFAFF00FAFFFA0045
:1035B000FFFBFF00FBFF0000000000000201E8002D
:1035C0006110E10004003A009101BA003182BA00B2
:1035D00006C0BF00000006006210E10002003A00D1
:1035E00007C0BF000000060008C0BF000001EB00DC
:1035F000000006000600200000002000A002880055
:1036000020842100800078000001EB00DE1A020017
:10361000000000000BE0B700DE1A0200000000000E
:103620000AE0B7000500E0001900320005F0A6002E
:1036300007003700DE1A0200000000000DE0B700AE
:10364000DE1A0200000000000CE0B70005F0A10047
:1036500005E0A6000800370005E0A1008502E900AA
:10366000DE1A020000000000804378000580090097
:10367000075B7800E5FF3700DE1A0200000000005B
:10368000005B78008502E900FBFF3A00DFFF3700AE
:1036900044A0A9004400A80045A0A8004580A900B6
:1036A000506EA900546EA800102EA900142EA80078
:1036B000100EA900140EA80004002000640F8A0058
:1036C000141F2000740F8A00141F2000840F8A002A
:1036D00004002000640F8A00600F8200141F200085
:1036E0000020E10011003400600F82000002780029
:1036F0006420B800042621008402400080CAEB0048
:10370000F0CFB3009042980070C0B300A042980080
:1037100000C0B300B0429800600F82000000E800D3
:10372000600F8A006C1B04000000000004002200EF
:10373000940F8A0004002000A40F8A009214020053
:103740000000000004002200940F8A000400200002
:10375000A40F8A00400F810030C5B300400F8900DC
:10376000400F81000080FD0020C0B3000080FD00FC
:10377000400F8900F241F8004F0078004800DE0059
:10378000EA21F800E0FF9F00EA21F900900F820093
:10379000EA21F800F0FF9F00EA21F900D0160200AC
:1037A00000000000CE1B04000000000014002000F8
:0837B000040088000040FE0047
:0200000401F009
:10000800030000FF800000FF220000FF7F0000FFC8
:0C001800370000FFD70000FF030000FFCE
:00000001FF
;DSPIC33EP256MU806
;CRC=980D  CREATED="26-júl.-18 20:25"
